:100000000C94D9000C9401010C9401010C94010191
:100010000C9401010C9401010C9401010C94010158
:100020000C9401010C9401010C9401010C94010148
:100030000C9401010C9401010C94B50C0C94660D08
:100040000C9401010C9401010C9401010C94010128
:100050000C9401010C9401010C9401010C94010118
:100060000C9401010C9401010C94430C0C941D0C94
:100070000C9401010C9401010C9401010C940101F8
:100080000C9401010C9401010C9401010C940101E8
:100090000C94B90B0C948F0C0C94690C0C9401010A
:1000A00000407A10F35A00A0724E18090010A5D42F
:1000B000E80000E87648170000E40B54020000CA8C
:1000C0009A3B000000E1F5050000809698000000D2
:1000D00040420F000000A086010000001027000031
:1000E0000000E803000000006400000000000A00B7
:1000F000000000000100000000002C76D888DC67BA
:100100004F0823DFC1DFAE59E1B1B796E5E3E45311
:10011000C63AE651997696E8E6C28426EB898C9B2E
:1001200062ED407C6FFCEFBC9C9F40F2BAA56FA5CE
:10013000F490055A2AF75C936B6CF9676DC11BFC50
:10014000E0E40D47FEF520E6B500D0ED902E03006B
:10015000943577050080841E080000204E0A0000B8
:1001600000C80C333333330F986E12831141EF8D77
:100170002114893BE65516CFFEE6DB18D1844B38B7
:100180001BF77C1D901DA4BBE424203284725E22E8
:100190008100C9F124ECA1E53D2731353A31343AEB
:1001A000333800446563202037203230323200007B
:1001B000330E11241FBECFEFCDBFDFE3DEBF2AE237
:1001C000AAE0B8E201C01D92AD39B207E1F718E22A
:1001D000A0E0B8E2ECEDF6E302C005900D92AA3083
:1001E000B107D9F710E0C9EDD0E004C02197FE01B6
:1001F0000E94D118C83DD107C9F70E94950E0C94F2
:10020000F31A0C9400006F927F928F929F92AF929C
:10021000BF92CF92DF92EF92FF920F931F93CF93F3
:10022000DF937C013B016A0110E000E0D7011496E6
:100230008D919C91E601C01BD10B8C179D0708F492
:10024000EC01F7018181928121E0A6014C1B5D0B3D
:100250000417150708F420E0DC01ED91FC91048CF3
:10026000F58DE02DAE01D7016C9109958C179D0796
:1002700071F54301800E911E5401C5018819990939
:100280008C179D0770F4F70181819281DC01ED915B
:10029000FC910284F385E02D0995F50181935F01BE
:1002A000ECCF0C0F1D1F0C151D0508F4BFCF81E00E
:1002B000DF91CF911F910F91FF90EF90DF90CF9042
:1002C000BF90AF909F908F907F906F90089580E047
:1002D000EFCFCF93DF9390E0FC01E05CF948208101
:1002E0002F3F71F0FC01EA5DF948A08130E2A39F45
:1002F000D0011124BC5F6130710529F411962C9353
:10030000DF91CF910895845F9948EC01E881EF3F38
:1003100089F0CD014096E80FF92FF11D9FB7F894B1
:1003200012962C9380816230710539F48860808345
:100330009FBFE6CFF0E0E0E0F1CF877FF8CF282F36
:1003400030E0F901EE50FA48E081EE2309F1E130A6
:1003500021F0F0F0E63098F008954091010A245F12
:100360003948F90120812C5F81E090E001C0880FBD
:100370002A95EAF7809584238093010A089580E105
:10038000E89FF0011124E05AF54F81818F7E81832F
:100390000895FF920F931F93CF93DF93082F10E0E0
:1003A000F801E05CF948F0809FEFF916A1F0EB014D
:1003B0008B3210F40E949F01F801EA5DF948E08158
:1003C00080E2E89FF0011124FC5F80818F2159F0C9
:1003D000CD2B39F4F682DF91CF911F910F91FF90D1
:1003E0000895F582F8CFD801A45FB9488C91309771
:1003F00071F08F3F61F07096E80FF11D9FB7F89490
:100400008081CD2B39F4877F80839FBFE4CFF0E0DC
:10041000E0E0F4CF8860F8CFE82FF0E0E452FA484B
:1004200080818F30A0F48093060681E080930806D7
:1004300080910B0680FFFCCF2FB7F89490911006A7
:10044000809111062FBF89279827892708958FEF5C
:1004500090E00895CF93DF938FB7F89420914B29C4
:1004600030914C2940914D2950914E29E091BA0A82
:100470009091B60A90FF06C02F5F3F4F4F4F5F4FDE
:10048000E091BA0A8FBFA0914929B0914A29C09141
:100490004729D09148290E942D17EC9F9001ED9F8C
:1004A000300D1124620F731F811D911DDF91CF91BB
:1004B00008958F929F92AF92BF92CF92DF92EF9268
:1004C000FF924B015C010E942A026B017C01A8EEA5
:1004D000B3E0A50194010E942D17C60ED71EE81E99
:1004E000F91EC616D706E806F90618F40E942A0275
:1004F000F8CF0E942A026C157D058E059F05C8F372
:10050000FF90EF90DF90CF90BF90AF909F908F9033
:100510000895AF92BF92CF92DF92EF92FF920F9326
:100520001F93CF93DF936C017B018B01040F151F89
:10053000EB015E01AE18BF08C017D10759F06991F1
:10054000D601ED91FC910190F081E02DC601099555
:10055000892B79F7C501DF91CF911F910F91FF9002
:10056000EF90DF90CF90BF90AF900895FB01448152
:100570005581608171810C948902FC01A485B58547
:1005800011968C91119781FD1BC06C9182898F5FB0
:100590008F739389981739F0A289AE0FBF2FB11DC1
:1005A00059966C93828BE756FF4F8081918100971B
:1005B00041F0DC01ED91FC910190F081E02D099476
:1005C0008C910895FC0154894589252F30E0842FB2
:1005D00090E0821B930B541710F0CF96089501976B
:1005E0000895FC0192898389981761F0A389AE0F61
:1005F000BF2FB11D59968C9193899F5F9F73938BE9
:1006000090E008958FEF9FEF0895FC019289838910
:10061000981731F08389E80FF11D818D90E00895DE
:100620008FEF9FEF0895FC0192892389892F90E035
:10063000805C9F4F821B91098F7399270895CF93F8
:10064000DF93EC01E881F9810680F781E02D0995BF
:10065000EC85FD8586818F738683EC85FD8585819C
:100660008F7585838B898A8B198ADF91CF91089545
:10067000CF92DF92EF92FF920F931F93CF93DF936E
:10068000EC016A017B01022F8989882339F0E88116
:10069000F9810288F389E02DCE010995988980912E
:1006A000E205892B8093E2051FB7F89460E070E2C1
:1006B00081EA97E0A70196010E94901869017A01EA
:1006C0008FEFC81AD80AE80AF80AF694E794D79484
:1006D000C794EC85FD8586818D7F8683EC85FD85BD
:1006E00086818683198AA09123110A2E000CBB0BE8
:1006F000A70196010E94D71820E034E040E050E0C6
:100700000E94B218EC85FD85C20ED31EE41EF51EB4
:10071000C086D186EC85FD850783EC85FD858681C5
:10072000806C8683EC85FD858581806885838E85D8
:100730008B3220F462E070E00E9469018F858B3279
:1007400020F461E070E00E94C9018F858B3220F4B3
:1007500061E070E00E9469011FBFDF91CF911F919E
:100760000F91FF90EF90DF90CF900895CF93DF939C
:10077000FC0194898589C485D585981306C08D812F
:100780008F7D8D83DF91CF910895A589AE0FBF2F07
:10079000B11DA75ABF4F2C91858990E001968F73A8
:1007A0009927858B80E48C83A485B58512962C933C
:1007B000948985899813E6CFA485B58515968C9183
:1007C00015978F7D15968C9387898823D9F2808D14
:1007D00080931301178AD6CFDC011C96ED91FC9112
:1007E0000FB607FE03C0258125FD04C0248125FD29
:1007F0000C94B6030895EF92FF920F931F93CF933B
:10080000DF93EC0181E0898B9C898D8998131CC052
:10081000AC85BD8514968C91149785FF15C01296F2
:100820006C93AC85BD8580E414968C93EC85FD8536
:1008300085818F7D858381E090E0DF91CF911F914D
:100840000F91FF90EF9008958091110180FF08C0F3
:1008500080911301888F8E898093130181E08F8BA3
:10086000F62E0C8910E00F5F1F4F0F731127E02E3B
:100870008D898E1104C0CE010E94EC03F9CFEC8962
:10088000EC0FFD2FF11DE75AFF4FF0820C8BEC852A
:10089000FD8585818062CECF0C94FB03CF93DF93DF
:1008A000FC0121892223C9F0EC018091110180FF14
:1008B00008C080911301808F86898093130181E0A5
:1008C000878BEC85FD85858185FD03C0848186FD50
:1008D00004C0CE010E94EC03F4CFDF91CF910895C4
:1008E00081E008950895EF92FF920F931F93CF93A5
:1008F000DF937C01EB018B01040F151FC017D1079B
:1009000059F0D701ED91FC910480F581E02D6881CB
:10091000C70109958993F2CFDF91CF911F910F9174
:10092000FF90EF9008950F931F93CF93DF93EC0107
:100930008B018091C008E881F9810480F581E02D68
:1009400086FD13C0612FCE010995182FE881F9812A
:100950000480F581E02D602FCE010995082FC80194
:10096000DF91CF911F910F910895CE010995082F26
:10097000E881F9810480F581E02D612FCE01099590
:10098000182FEDCF00006093C4088091C30887FF43
:10099000FCCF8091C40808958F929F92AF92BF922E
:1009A000CF92DF92EF92FF920F931F93CF93DF933B
:1009B000FC018085882319F081FF0EC07894DF91B7
:1009C000CF911F910F91FF90EF90DF90CF90BF904C
:1009D000AF909F908F90089580FFF1CF8284938491
:1009E000A484B584C12CD12C760110E09401A5011A
:1009F000B601C701A0E00E94FC1899F1217030E017
:100A000040E050E060E070E080E090E00E94FC1880
:100A1000D9F0D0E0C0E0103370F4C12FC695C69570
:100A2000C69580E2C89FE0011124C05FDB4F812F93
:100A30008770C80FD11DCF01810F911DDC01529627
:100A40008C919881892B88839401A501B601C701F7
:100A500001E00E94E11849015A016B017C011F5F0E
:100A6000C5CF86849784A088B188C12CD12C76010B
:100A700010E29401A501B601C701A0E00E94FC1894
:100A800009F49DCF217030E040E050E060E070E07C
:100A900080E090E00E94FC18D9F0D0E0C0E0103374
:100AA00070F4C12FC695C695C695B0E2CB9FE00104
:100AB0001124C05FDB4F812F8770C80FD11DCF017C
:100AC000810F911DDC0152968C919881892B88832E
:100AD0009401A501B601C70101E00E94E118490196
:100AE0005A016B017C011F5FC4CFFC016F3F710590
:100AF00081F1808581FD2DC0603271055CF581E05A
:100B000090E002C0880F991F6A95E2F78095909552
:100B1000092E000CAA0BBB0B428553856485758595
:100B200084239523A623B72382879387A487B58739
:100B300082859385A485B585892B8A2B8B2B49F4D7
:100B400086859785A089B189892B8A2B8B2B09F4FF
:100B5000108608956052710981E090E002C0880F0C
:100B6000991F6A95E2F780959095092E000CAA0BC3
:100B7000BB0B468557856089718984239523A623FD
:100B8000B72386879787A08BB18BD2CFFC016F3FAD
:100B90007105E9F1603371051CF082E080870895EA
:100BA00080858160808760327105C4F481E090E0C7
:100BB00002C0880F991F6A95E2F7092E000CAA0B54
:100BC000BB0B4285538564857585842B952BA62B9D
:100BD000B72B82879387A487B587089560527109E0
:100BE00081E090E002C0880F991F6A95E2F7092E14
:100BF000000CAA0BBB0B4685578560897189842B35
:100C0000952BA62BB72B86879787A08BB18B089542
:100C1000E0ECF8E020812E7F2083FC01178208950C
:100C2000E0ECF8E082818E7F82830895E0ECF8E0CA
:100C300082818160828308950F9391E0909330299F
:100C400010922F2960932D2970932E2940932C29DF
:100C500020932B2910922A291092292900932829C0
:100C6000880F8093272923E030E044E050E0809112
:100C70002C29882341F0209325293093262980911F
:100C800027298E7F0BC080912B29882351F0409318
:100C90002529509326298091272981608093A708D0
:100CA00008C080912C29811104C080912B298823B0
:100CB00011F380912F298823E1F380912F2983302C
:100CC000B1F280912B29882321F0809129290F915D
:100CD000089580912F29823031F0853031F08130B4
:100CE00031F480E0F4CF81E0F2CF83E0F0CF84E014
:100CF000EECFE0EAF8E091859066918722E030E05F
:100D0000209325293093262980931729109216299C
:100D1000089581E0809316291092172993E090930B
:100D2000AA089091AB0891FF10C010922329E0917E
:100D30001429F091152909958093222985E090E0E6
:100D40008093252990932629089510922429809331
:100D5000212986E090E0F4CF8F929F92AF92BF92CC
:100D6000CF92DF92EF92FF92CF93DF9360342DE02A
:100D7000720723E08207910508F454C0611525E34A
:100D800072072CE08207910508F445C060387F4463
:100D90008241910508F046C0C8E7D0E020E432E483
:100DA0004FE050E08090002890900128A090022809
:100DB000B0900328C501B4010E94901869017A011E
:100DC0008AE0C81AD108E108F108C501B40120E49D
:100DD00032E44FE050E00E949018DE010E942D178F
:100DE00028EE33E040E050E00E949018C21AD30A87
:100DF000E40AF50AF694E794D794C794C092A6083B
:100E0000DF91CF91FF90EF90DF90CF90BF90AF90A8
:100E10009F908F900895CCE2D1E020E83AE146E03F
:100E200050E0C0CFC8EED3E020EA36E841E050E021
:100E3000B9CF6093122970931329089560931029F4
:100E4000709311290895E0911229F0911329309798
:100E500041F010920F2910920E29099580910E29C8
:100E6000089580E00895E0911029F09111293097BC
:100E700059F030910D2920910C29321728F0109249
:100E80000D2980930C29099408950895E0910D2966
:100E900080910C29E81730F4F0E0E457F74D808199
:100EA00090E008958FEF9FEF089590910D29809124
:100EB0000C292FEF3FEF981748F4E92FF0E0E457A3
:100EC000F74D208130E09F5F90930D29C90108956F
:100ED00080910C2990910D29891B990B0895CF922F
:100EE000DF92EF92FF920F931F93CF93DF937C01DA
:100EF0008A01EB016B01C40ED51ECC15DD0551F046
:100F00006991D701ED91FC910190F081E02DC7012D
:100F10000995F3CFC801DF91CF911F910F91FF90F9
:100F2000EF90DF90CF90089520910E2927FF08C001
:100F300021E030E0FC012283338390E080E00895DB
:100F400080910F29E82FF0E0E45FF74D60838F5F19
:100F500080930F2980930E2981E090E00895DC01B1
:100F6000ED91FC91008CF18DE02D61E009940F93DF
:100F700080912529909126290197A1F4809130290B
:100F8000811112C0062F20E040910E296CE078E21A
:100F900080910B280E941C0610920F2910920E2996
:100FA0000F91089580E0F8CF81E0F6CF60930B2891
:100FB00010920F2910920E290895DC01ED91FC91F9
:100FC000048CF58DE02D21E009940F938CE898E2D4
:100FD0008093182990931929809125299091262989
:100FE0000197C9F480913029811117C0FA01413865
:100FF000510510F0E0E8F0E0022F862F2E2F40E0A0
:1010000070E060E00E941C0610920D2980930C296C
:1010100090E00F91089580E0F7CF81E0F5CFCB010C
:10102000BA010C94AC06E0EAF8E01382168281E083
:1010300085831486118610922529109226290895F9
:1010400010920D2910920C2910920F2910920E293E
:101050008091252990912629892BD9F482E090E06E
:1010600080932529909326291092242910922329D0
:10107000109216291092172910920A2810922129ED
:10108000660F6093AC0881EE8093A90881E080939D
:10109000A30883E297E080931429909315298CE0AC
:1010A00098E280931A2990931B2983E397E0809319
:1010B0001F29909320298CE898E280931C29909313
:1010C0001D2980E880931E29089510920D29109201
:1010D0000C2910920F2910920E29809125299091A8
:1010E0002629892B41F562E070E086E10E946901C2
:1010F00062E070E087E10E9469018091E3058093DE
:10110000E30581E090E080932529909326291092B1
:10111000292910922A291092302910922F2981EC26
:101120008093A30860EA76E881E090E00E94AC0634
:1011300081E08093A508089590E080E00895CF9322
:10114000DF93EC018B818823D1F089819A81DC01C6
:10115000ED91FC910688F789E02D688109958981D8
:101160009A81DC01ED91FC91028CF38DE02D0995C3
:1011700091E0811190E0892FDF91CF9108958981CD
:101180009A81DC01ED91FC910684F785E02D0995AB
:1011900081E08B83CE010E949F08982F8111D5CFCB
:1011A000EACFDC01ED91FC910088F189E02D23E08C
:1011B00030E00994FB0101900020E9F73197AF017D
:1011C000461B570B0C9489028F929F92AF92BF924D
:1011D000EF92FF920F931F93CF93DF93CDB7DEB7BC
:1011E000A197CDBFDEBF7C01FA01CB0119A222304D
:1011F00008F42AE08E010F5D1F4F822E912CB12C36
:10120000A12CBF01A50194010E949018F901CA0107
:101210006A30F4F4605DD8016E938D01232B242B8A
:10122000252B79F790E080E0109721F0BD01C701F0
:101230000E94DA08A196CDBFDEBFDF91CF911F914A
:101240000F91FF90EF90BF90AF909F908F90089577
:10125000695CE1CF0C94DA08CF92DF92EF92FF92B3
:101260000F93FC01C12CB9E0DB2EBDE3EB2EF12C7A
:10127000C082D182E282F3821482158281E090E002
:1012800086839783C0900028D0900128E0900228A0
:10129000F0900328F694E794D794C79490E04C1507
:1012A0005D056E057F0540F4F694E794D794C794E6
:1012B0009F5F9630A1F797E004600187892F8095A2
:1012C000A82FA170B0E084E0AA0FBB1F8A95E1F7B8
:1012D00091629A2B80E0232B09F480E4982B90876D
:1012E0000F91FF90EF90DF90CF9008950F931F9391
:1012F000CF93DF93CDB7DEB72A97CDBFDEBF8C018A
:10130000FC01878181110CC010861186128613861C
:101310001486158616861786108A118A81E08783BF
:101320008091E305F8019681892B8093E305838101
:101330008B3220F461E070E00E946901F801848141
:101340008B3220F461E070E00E9469018091C10855
:1013500084608093C1088091C00881628093C00836
:101360004091852A5091862A6091872A7091882A17
:101370000091892A20918B2A30918C2ACE010196E6
:101380000E942C0999858A859093C0088093C10892
:101390002A96CDBFDEBFDF91CF911F910F910895A7
:1013A0005F926F927F928F929F92AF92BF92CF92F5
:1013B000DF92EF92FF920F931F93CF93DF93CDB7FE
:1013C000DEB76297CDBFDEBF3C010B871C872D8740
:1013D0003E87042F4F87588B698B7A8B29893A89EE
:1013E0004B855C856D857E85CE0101960E942C091A
:1013F00059841A85D30118968C91882319F081FF9E
:1014000018C0F8945092C0081093C1086296CDBFDE
:10141000DEBFDF91CF911F910F91FF90EF90DF9092
:10142000CF90BF90AF909F908F907F906F905F9084
:10143000089580FFE7CFF30182849384A484B58468
:10144000C12CD12C7601B0E09401A501B601C701F1
:10145000A0E00E94FC18A9F1217030E040E050E0CB
:1014600060E070E080E090E00E94FC18E9F090E01D
:1014700080E0B03370F48B2F869586958695F0E2E8
:101480008F9FC0011124805F9B4F2B2F2770820FED
:10149000911DFC01408193012B0F311DF901428BFD
:1014A000FC012081287F20839401A501B601C7019A
:1014B00001E00E94E11849015A016B017C01BF5F04
:1014C000C3CFD3011E968D909D90AD90BC90519747
:1014D000C12CD12C7601B0E29401A501B601C7015F
:1014E000A0E00E94FC1809F48DCF217030E040E0AC
:1014F00050E060E070E080E090E00E94FC18E9F0CD
:1015000090E080E0B03370F48B2F869586958695B9
:10151000E0E28E9FC0011124805F9B4F2B2F27702C
:10152000820F911DFC01408193012B0F311DF901A8
:10153000428BFC012081287F20839401A501B60104
:10154000C70101E00E94E11849015A016B017C01C9
:10155000BF5FC2CF0C94A419FC01808191810097D8
:1015600011F00C94A4190895462F50E070E060E04B
:101570002AE00C94E408DF92EF92FF920F931F93FE
:10158000CF93DF93DC011496ED91FC91E417F507FE
:1015900010F490E029C0D22E8A017B01EC018981F0
:1015A0009A81DC01ED91FC910688F789E02D688134
:1015B000099589819A81DC01ED91FC910280F3818A
:1015C000E02DA801B70109950817190711F78981BE
:1015D0009A81DC01ED91FC91008CF18DE02D6D2D57
:1015E000099591E08111D5CF892FDF91CF911F917E
:1015F0000F91FF90EF90DF900895EF92FF920F937D
:101600001F93CF93DF93EC017B018A01888199813D
:10161000009729F02A813B812417350788F4B80107
:101620006F5F7F4F0E942D1A0097D1F088839983B6
:101630000A831B832C813D81232B11F4FC01108232
:101640000C831D83A801B701888199810E94EA1A41
:10165000E881F9818C819D81E80FF91F10820CC00F
:1016600088819981009711F00E94A419188219822B
:101670001C821D821A821B82CE01DF91CF911F91A5
:101680000F91FF90EF900895EF92FF920F931F93A9
:10169000CF93DF93CDB7DEB76297CDBFDEBF8C01AE
:1016A000CB01F801108211821282138214821582FA
:1016B0004AE09E012F5F3F4F7901B9010E949D13BF
:1016C000F70101900020E9F73197AF014E195F094A
:1016D000B701C8010E94FD0A6296CDBFDEBFDF914F
:1016E000CF911F910F91FF90EF900895EF92FF928D
:1016F0000F931F93CF93DF93CDB7DEB7E397CDBFA3
:10170000DEBF7C01CB01BA01F70110821182128287
:101710001382148215828E010F5F1F4F22E044E076
:101720000E9476130097B1F0FC0101900020E9F7C8
:101730003197AF01481B590BBC01C7010E94FD0A3C
:10174000E396CDBFDEBFDF91CF911F910F91FF9048
:10175000EF900895F70180819181009711F00E9428
:10176000A419F70110821182148215821282138249
:10177000E7CF1F920F920FB60F9211242F933F9332
:101780004F935F936F937F938F939F93AF93BF9389
:1017900040914329509144296091452970914629EF
:1017A000809141299091422920913F2930914029EF
:1017B000420F531F611D711D20913D2930913E291B
:1017C000820F931F883E23E0920730F0885E93409B
:1017D0004F5F5F4F6F4F7F4F809341299093422916
:1017E0004093432950934429609345297093462997
:1017F00080914B2990914C29A0914D29B0914E296F
:101800000196A11DB11D80934B2990934C29A09363
:101810004D29B0934E2981E08093B60ABF91AF91D4
:101820009F918F917F916F915F914F913F912F91F8
:101830000F900FBE0F901F9018951F920F920FB62A
:101840000F9211242F933F934F935F936F937F9346
:101850008F939F93AF93BF93EF93FF938FE499E29E
:101860000E94B603FF91EF91BF91AF919F918F912D
:101870007F916F915F914F913F912F910F900FBE8C
:101880000F901F9018951F920F920FB60F92112470
:101890002F933F934F935F936F937F938F939F9378
:1018A000AF93BF93EF93FF938FE499E20E94BD0241
:1018B000FF91EF91BF91AF919F918F917F916F9128
:1018C0005F914F913F912F910F900FBE0F901F90FE
:1018D00018951F920F920FB60F9211242F933F93DA
:1018E0004F935F936F937F938F939F93AF93BF9328
:1018F000EF93FF938AEE99E20E94B603FF91EF9176
:10190000BF91AF919F918F917F916F915F914F9117
:101910003F912F910F900FBE0F901F9018951F921F
:101920000F920FB60F9211242F933F934F935F9313
:101930006F937F938F939F93AF93BF93EF93FF9397
:101940008AEE99E20E94BD02FF91EF91BF91AF91A3
:101950009F918F917F916F915F914F913F912F91C7
:101960000F900FBE0F901F9018951F920F920FB6F9
:101970000F9211242F933F934F935F936F937F9315
:101980008F939F93AF93BF93CF93EF93FF93C091A8
:10199000AB08C2FF0AC0109224291092232910928A
:1019A000222984E00E94790614C0C6FF2FC08091CE
:1019B0002129813051F480912429E0911F29F0914F
:1019C000202990E0099510922129C0FF14C00E949F
:1019D0008906FF91EF91CF91BF91AF919F918F9128
:1019E0007F916F915F914F913F912F910F900FBE1B
:1019F0000F901F90189580E48093AB0881E00E94BF
:101A000079068091AB0885FFE4CFE1CFC7FF5CC0CA
:101A1000C3FF08C010922429109223291092222972
:101A200083E0C0CF8091A90880668093A908809147
:101A3000AB0881FF2CC080912329882349F0809135
:101A4000AB0884FF05C082E08093AA0881E0AACF9A
:101A500090912329809122299817A8F4E0912329B5
:101A600080911A2990911B29E80FF92FF11D80818F
:101A70008093AD08809123298F5F8093232983E091
:101A80008093AA08A6CF82E08093AA088BCF90917A
:101A9000242980911E29981790F48091AD08E09137
:101AA000242920911C2930911D29E20FF32FF11DCB
:101AB0008083809124298F5F80932429E0CF86E062
:101AC0008093AA0882E06ECF85E06CCF1F920F92C0
:101AD0000FB60F9211242F933F938F939F93EF9301
:101AE000FF938091A508982F9C70E1F08091A50844
:101AF00094E082FF93E090932F298093A50881E0E2
:101B000090E0809325299093262910923029FF9107
:101B1000EF919F918F913F912F910F900FBE0F905A
:101B20001F90189586FF4EC020912C2990912B294B
:101B30008091A50884FF15C080912829882379F019
:101B400083E08093A40885E080932F2910923029A8
:101B500081E090E08093252990932629D8CF81E0D9
:101B6000F0CF80912A29821790F4E0912A29809160
:101B70002D2990912E29E80FF92FF11D8081809356
:101B8000A80880912A298F5F80932A29C0CF80914D
:101B90002929891760F484E090E0809325299093A7
:101BA00026298091272981608093A708B0CF809152
:101BB0002829882329F083E08093A40881E0C4CFFA
:101BC00081E0FACF87FF40C09091292980912B298D
:101BD0009817D8F48091A808E09129292091182914
:101BE00030911929E20FF32FF11D8083809129296B
:101BF0008F5F8093292990912B298091292989171A
:101C0000D8F482E08093A40882CF80912829882389
:101C100089F087E08093A40882E080932F291092B6
:101C2000302981E090E08093252990932629109215
:101C30002B296DCF85E0EECF80912829882311F0E4
:101C400087E0BACF85E0B8CF86E07ECFFC019081F7
:101C500090539A3008F090E0818180532AE0929F5F
:101C6000800D11240895EFE4F9E21282138288EEC8
:101C700093E0A0E0B0E084839583A683B7832EE54C
:101C800036E72083318340E258E044875587168643
:101C900041E0478744E0408B128A138A148A158AF0
:101CA0004BE1468B178A108E1092E8291092E92991
:101CB000EAEEF9E21282138284839583A683B783C6
:101CC0002083318320E638E02487358728E1268782
:101CD00029E1278720E4208B128A138A148A158A27
:101CE00026E2268B178A108E1092832A1092842A5D
:101CF000E5E8FAE240E059E06DE370E040835183AB
:101D0000628373831482158221E030E02683378357
:101D1000EDE8FAE21282138284839583A683B78367
:101D200088E796E7808391830895CF93DF93CDB7BB
:101D3000DEB72C97CDBFDEBF88ED90E084BF9093D7
:101D4000610080E094E2A4EFB0E0809300289093DB
:101D50000128A0930228B093032880910206866090
:101D60008093020680910006816080930006809136
:101D700002068F7C809302068091A0008F7880936A
:101D8000A000809102068061809302061092E20515
:101D900081E08093E40583E08093010A8FEF90E077
:101DA0008093260A9093270A80E890E08093380A6F
:101DB0009093390A80933A0A90933B0A80933C0AA5
:101DC00090933D0A8BE08093000A8091E505816045
:101DD0008093E5058091E50582608093E505E0E864
:101DE000FAE037E02FEF90E885E03183248795878C
:101DF00080837096E03C4AE0F407B9F780E094E015
:101E00008093492990934A298091492990914A29A0
:101E10002FEF30E0B9010E94681860934729709352
:101E200048298091492990914A29E8EEF3E0BF01C1
:101E30000E94681860933F29709340298091492936
:101E400090914A29BF010E94681880933D29909380
:101E50003E292093BC0A3093BD0A8091B50A816067
:101E60008093B50A84E08093B00A8091B00A8160C3
:101E70008093B00A789440E051EE60E070E08FE427
:101E800099E20E94D10840E051EE60E070E08AEEF5
:101E900099E20E94D10870E060E08EE00E94690142
:101EA00070E060E08FE00E94690170E060E080E136
:101EB0000E94690170E060E081E10E94690170E0C8
:101EC00060E084E10E94690161E070E082E00E94CC
:101ED000690161E070E083E00E94690180913B2923
:101EE00090913C29009711F00E94A41986E090E09F
:101EF0000E9408198C0188E6F80180838DE89AE237
:101F000081839283138280E290E08483958300939F
:101F10003B2910933C298DE89AE20E94650881E0F4
:101F2000F8018383C8010E949F08811117C06CE9E2
:101F300076E78AEE99E20E94DA086EEA76E78AEEA0
:101F400099E20E94DA088AEE99E20E944E046AE061
:101F500070E080E090E00E945902F9CF1C8621E0F9
:101F600041E050E0BE01645F7F4F80913B2990913A
:101F70003C290E94BB0A41E050E08E010F5F1F4FD9
:101F8000B80180913B2990913C290E9403018981ED
:101F900090E0880F892F881F990B892B09F499C02D
:101FA00061EB76E78AEE99E20E94DA086EEA76E75C
:101FB0008AEE99E20E94DA084BE050E063EA71E0B1
:101FC000C8010E949413CE010A960E94260EE82EA4
:101FD000E981E154E331E0F40E2E000CFF0BED50EB
:101FE000F04F0C94D1184513081008106013081016
:101FF00006100810081008103613081008104E13A9
:102000005D135A130810081008105713A2E0FA2E97
:10201000CE0105960E94260ED82E48E050E06AE9CF
:1020200071E0C8010E949413C8010E94260EC82EB8
:10203000CE0104960E94260EB82ECE0107960E946D
:10204000260E382F86E0F80111928A95E9F72AE0EA
:10205000832F622F0E945C18982F880F890F880F9A
:10206000830F8A838B2D0E945C18982F880F890F0D
:10207000880F8B0D8B838C2D0E945C18982F880FF6
:10208000890F880F8C0D8C838D2D0E945C18982FE2
:10209000880F890F880F8D0D8E838F2D0E945C18FD
:1020A000982F990F890F880FF80EFF828E2D0E94AE
:1020B0005C18982F880F890F880F8E0D888721E074
:1020C00048E050E0B80180913B2990913C290E9462
:1020D000BB0AAAE0EA2EF12CB0E02B2EB0E03B2E9A
:1020E0001982C0903B29D0903C2920E041E050E08B
:1020F000B801C6010E94BB0A882331F047E050E0D6
:10210000B801C6010E94030129812F77822F90E038
:1021100034E0959587953A95E1F7982F990F990FA7
:10212000D82ED91ADD0CD20E2A81822F90E044E0FD
:10213000959587954A95E1F7982F990F990FC82E95
:10214000C91ACC0CC20E2B81822F90E054E09595D9
:1021500087955A95E1F7982F990F990F782E791A4C
:10216000770C720E2D81822F90E064E09595879513
:102170006A95E1F7982F990F990F682E691A660CE6
:10218000620E2E81822F90E074E0959587957A9566
:10219000E1F7982F990F990F582E591A550C520E96
:1021A0002F81822F90E0E4E095958795EA95E1F7FD
:1021B000982F990F990F882E891A880C820E912CCE
:1021C000F0E38F1AF8EF9F0AB12CA12C2AE0B50199
:1021D000A4018AEE99E20E94E4086FE28AEE99E295
:1021E0000E944C04652D8AEE99E20E94B40A6FE2C7
:1021F0008AEE99E20E944C04662D8AEE99E20E94D2
:10220000B40A6AED76E78AEE99E20E942A09672D00
:102210008AEE99E20E94B40A6AE38AEE99E20E9489
:102220004C046C2D8AEE99E20E94B40A6AE38AEEAD
:1022300099E20E944C046D2D8AEE99E20E94B40A44
:1022400069ED76E78AEE99E20E942A092AE0B50153
:10225000A4018FE499E20E94E4086FE28FE499E21E
:102260000E944C04652D8FE499E20E94B40A6FE24B
:102270008FE499E20E944C04662D8FE499E20E945B
:10228000B40A6AED76E78FE499E20E942A09672D85
:102290008FE499E20E94B40A6AE38FE499E20E9413
:1022A0004C046C2D8FE499E20E94B40A6AE38FE437
:1022B00099E20E944C046D2D8FE499E20E94B40AC9
:1022C00069ED76E78FE499E20E942A091092392994
:1022D00010923A29109237291092382910923529F4
:1022E000109236291092332910923429FAE04F2E99
:1022F000512C8FE00E940C028090392990903A294D
:10230000880E991E8092392990923A2980E10E9484
:102310000C02A0903729B0903829A80EB91EA092BF
:102320003729B09238298EE00E940C02C0903529DE
:10233000D0903629C80ED91EC0923529D0923629A0
:1023400081E10E940C026090332970903429680E5C
:10235000791E609233297092342962E070E080E047
:1023600090E00E94590221E0421A510809F0C1CFC1
:10237000C401B7010E947C189B01609339297093B6
:102380003A29C501B7010E947C185B016093372987
:1023900070933829C601B7010E947C1860933529D3
:1023A00070933629C301B7010E947C1860933329CA
:1023B00070933429B901330F880B990B0E941016C2
:1023C00026EF38E24CE950E40E946F1620E030E43A
:1023D0004CE155E40E947817905820E030E040E24C
:1023E00050E40E946F162B013C01B501BB0C880B19
:1023F000990B0E94101626EF38E24CE950E40E9437
:102400006F1620E030E447E155E40E94781720E0A1
:1024100030E040E250E40E946F164B015C01B301D2
:10242000A201C8010E94760BB8018FE499E20E94D4
:10243000B602C8010E94AC0A69ED76E78FE499E222
:102440000E942A09B501A401C8010E94760BB801B7
:102450008FE499E20E94B602C8010E94AC0A69EDBD
:1024600076E78FE499E20E942A09B301A201C8012C
:102470000E94760BB8018AEE99E20E94B602C8016A
:102480000E94AC0A69ED76E78AEE99E20E942A0979
:10249000B501A401C8010E94760BB8018AEE99E249
:1024A0000E94B602C8010E94AC0A69ED76E78AEE86
:1024B00099E20E942A096091352970913629072EE8
:1024C000000C880B990B0E94101620E030E040EAC7
:1024D00050E40E946F1620E030E040E85AE30E948A
:1024E0006F1620E030E040E05FE30E94781720E0C4
:1024F00030E048EC52E40E946F164B015C01BC01D5
:10250000A401C8010E94760BB8018FE499E20E94F1
:10251000B602C8010E94AC0A69ED76E78FE499E241
:102520000E942A09B501A401C8010E94760BB801D6
:102530008AEE99E20E94B602C8010E94AC0A69EDD7
:1025400076E78AEE99E20E942A09809133299091D8
:10255000342949E1489FB001499F700D1124072E8D
:10256000000C880B990B0E94101620E030EC4FE70E
:1025700054E40E94E5174B015C01BC01A401C801B1
:102580000E94760BB8018FE499E20E94B602C8015E
:102590000E94AC0AB501A401C8010E94760BB801E3
:1025A0008AEE99E20E94B602C8010E94AC0A69ED67
:1025B00076E78FE499E20E942A0969ED76E78AEED0
:1025C00099E20E942A0984E10E949F0160916804B7
:1025D0006295617070E06093312970933229C8016F
:1025E0000E94440BB8018FE499E20E94B602C80130
:1025F0000E94AC0A6091312970913229C8010E9471
:10260000440BB8018AEE99E20E94B602C8010E940A
:10261000AC0A6FEA76E78FE499E20E942A096FEA32
:1026200076E78AEE99E20E942A0920E030E040E451
:1026300051E4C501B4010E94571887FD44C061E010
:1026400070E083E00E94C90170E060E082E00E94D7
:10265000C9016CEF76E280E090E00E9459022114FB
:10266000310409F43DCD0E9400003ACD8A81FF2457
:10267000F394813609F4CCCC8B81F7E0FF2E8E36B3
:1026800009F0C6CCE6E0FE2EC3CC8B8178E0F72EB5
:10269000823709F0BDCC64E0F62EBACC8B8155E0D0
:1026A000F52E823709F0B4CC43E0F42EB1CC39E0FA
:1026B000F32EAECC2AE0F22EABCC9BE0F92EA8CCC8
:1026C0008CE0F82EA5CC20E030E048E351E4C501D1
:1026D000B4010E94091618160CF4BBCF70E060E03C
:1026E00083E00E94C90161E070E0B0CFEF920F93E8
:1026F0001F93CF93DF93E80134E047FD34E1042ECC
:10270000000C550B57FF03C0519541955109E32E1D
:10271000022F242FAE010E94C213CE01DF91CF9170
:102720001F910F91EF900895FB01DC0102C005900D
:102730000D9241505040D8F70895BB274A3031F4EC
:10274000992322F4BDE2909581959F4F0C94A91393
:10275000BB27FB015527AA27880F991FAA1FA4177B
:1027600010F0A41B83955051B9F7A05DAA3308F06F
:10277000A95DA193009779F7B111B1931192CB01A3
:102780000C94F915A9E0B0E0E8ECF3E10C943E17E5
:102790006A01F22EB02E102FFBE3AF2EA01608F424
:1027A0001BE31F5F012F27E0AE014F5F5F4F0E94C9
:1027B0002115BC018981982F9970913009F43FC08F
:1027C0009BE2E1FC04C09E2D9170E0FC3AC05E2DBE
:1027D0005071E82FE87083FF46C084E0911101C07A
:1027E00083E0EF2DE81B8F1508F0E0E0D6018E2F77
:1027F00020E2552351F1992329F0D6019C93C6017B
:1028000001966C0196012D5F3F4FE2FE24C08EE4DD
:10281000D6018C9391E411969C93119712968C9308
:10282000D9018E2F90E281111BC0E20FF32FF11D11
:1028300010828EEF9FEF2996ECE00C9457179DE2E3
:10284000C6CF90E2C4CF2D9381508111FCCFCE0E24
:10285000D11CE0E0D0CF8EE6D6018C9391E6DBCFA1
:102860009D938150E0CF482F447082FF3DC084E0AB
:10287000911101C083E08F1510F4EF2DE81BD601F4
:102880008E2F20E2552309F1992329F0D6019C933C
:10289000C60101966C0196012D5F3F4FE2FE1BC001
:1028A00089E4D6018C938EE411968C93119786E47B
:1028B00012968C93D9018E2F90E2882309F4B5CF1C
:1028C0009D938150FACF2D9381508111FCCFCE0E74
:1028D000D11CE0E0D9CF89E6D6018C938EE6119623
:1028E0008C93119786E6E4CF9B0177FF02C030E01E
:1028F00020E0A1E0B0E0911102C0B0E0A0E0F90159
:102900003196AE0FBF1F8B2C912CBB2009F461C0F8
:102910005401EFEFAE1ABE0AAA0DBB1DFA161B0634
:1029200019F014F04F2D4A1B511188C0E3FC59C017
:102930007601A42FB0E2A1114FC0C40ED11C99237F
:1029400009F45BC040E0D6011196F60190836D0159
:10295000552309F448C0012F060F9A81582F507152
:1029600084FF03C0913309F4015010160CF047C0E6
:10297000093008F008E0EEE2FE2E5B01A01AB10873
:1029800085019194819491082F3F320729F4D60153
:10299000FC92F60131966F016217730794F10217EA
:1029A00013077CF5DB01A21BB30BAA24A394B12C63
:1029B000AC0EBD1EAA0DBB1D11968C912150310984
:1029C000D601119628153905F4F0F60180836D01C2
:1029D000DBCFB12CA12CA0CFF701B1937F01A15087
:1029E000AACF9111B0CFD601942F50E302C05D93CE
:1029F00091509111FCCFC40ED11C40E0ACCF01E04E
:102A0000BACF80E3DBCF6217730731F4963388F4D3
:102A1000953311F4552369F0F6018083FD01842F6D
:102A200090E2811108C0A40FB11D1C9290E080E0DB
:102A300002CF81E3F1CF91938150F3CF911183CFF6
:102A40008ACF283008F027E03327DA01990F311DAB
:102A500087FD916000966105710539F432602E5F43
:102A60003D9330E32A95E1F708959F3F30F0803899
:102A70007105610509F03C5F3C5F3D93913008F0C2
:102A80008068911DDF93CF931F930F93FF92EF9276
:102A9000192F987F9695E92F96959695E90FFF2720
:102AA000E650FF4F99273327EE24FF24A701E701C3
:102AB00005900894079428F4360FE71EF81E491F66
:102AC000511D660F771F881F991F0694A1F7059067
:102AD000079428F4E70EF81E491F561FC11D770FF3
:102AE000881F991F661F0694A1F70590079428F484
:102AF000F80E491F561FC71FD11D880F991F661F4B
:102B0000771F0694A1F70590079420F4490F561FEC
:102B1000C71FD81F990F661F771F881F0694A9F734
:102B200084911095177041F0D695C79557954795A4
:102B3000F794E7941A95C1F7E0EAF0E068941590ED
:102B4000159135916591959105907FE27395E11806
:102B5000F10A430B560BC90BD009C0F7E10CF11E6B
:102B6000431F561FC91FD01D7EF4703311F48A9580
:102B7000E6CFE894015030F0080F0AF4002702175E
:102B800008F4202F2395022F7A3328F079E37D93E0
:102B90002A95E9F710C07D932A9589F606949795B2
:102BA0006795379517951794E118F10A430B560B63
:102BB000C90BD00998F023957E9173957A3308F06C
:102BC00070E37C932013B8F77E9170617D9330F0B1
:102BD000839571E37D9370E32A95E1F71124EF90DB
:102BE000FF900F911F91CF91DF91992787FD9095CD
:102BF0000895DC01FC01672F71917723E1F732978B
:102C000004C07C916D9370836291AE17BF07C8F3C7
:102C100008950E944B1608F481E00895E89409C0D5
:102C200097FB3EF490958095709561957F4F8F4FFF
:102C30009F4F9923A9F0F92F96E9BB279395F69515
:102C4000879577956795B795F111F8CFFAF4BB0F93
:102C500011F460FF1BC06F5F7F4F8F4F9F4F16C0F7
:102C6000882311F096E911C0772321F09EE8872F81
:102C7000762F05C0662371F096E8862F70E060E03D
:102C80002AF09A95660F771F881FDAF7880F9695B6
:102C9000879597F90895990F0008550FAA0BE0E85A
:102CA000FEEF16161706E807F907C0F0121613060E
:102CB000E407F50798F0621B730B840B950B39F44E
:102CC0000A2661F0232B242B252B21F408950A26B4
:102CD00009F4A140A6958FEF811D811D08950E94E2
:102CE00082160C94F3160E94E51638F00E94EC163A
:102CF00020F0952311F00C94DC160C94E2161124AC
:102D00000C9427170E94041770F3959FC1F3950F39
:102D100050E0551F629FF001729FBB27F00DB11D5F
:102D2000639FAA27F00DB11DAA1F649F6627B00DEF
:102D3000A11D661F829F2227B00DA11D621F739FD8
:102D4000B00DA11D621F839FA00D611D221F749FE6
:102D50003327A00D611D231F849F600D211D822F2D
:102D6000762F6A2F11249F5750409AF0F1F0882354
:102D70004AF0EE0FFF1FBB1F661F771F881F915081
:102D80005040A9F79E3F510580F00C94DC160C943E
:102D900027175F3FE4F3983ED4F3869577956795C0
:102DA000B795F795E7959F5FC1F7FE2B880F911DAB
:102DB0009695879597F9089597F99F6780E870E051
:102DC00060E008959FEF80EC089500240A941616A1
:102DD000170618060906089500240A941216130609
:102DE000140605060895092E0394000C11F4882397
:102DF00052F0BB0F40F4BF2B11F460FF04C06F5FB3
:102E00007F4F8F4F9F4F089557FD9058440F551F88
:102E100059F05F3F71F04795880F97FB991F61F05C
:102E20009F3F79F087950895121613061406551FD3
:102E3000F2CF4695F1DF08C0161617061806991F3F
:102E4000F1CF86957105610508940895E894BB2734
:102E500066277727CB0197F908950E946917A59FE8
:102E6000900DB49F900DA49F800D911D1124089585
:102E70002F923F924F925F926F927F928F929F928A
:102E8000AF92BF92CF92DF92EF92FF920F931F9378
:102E9000CF93DF93CDB7DEB7CA1BDB0BCDBFDEBF51
:102EA00009942A88398848885F846E847D848C845C
:102EB0009B84AA84B984C884DF80EE80FD800C8165
:102EC0001B81AA81B981CE0FD11DCDBFDEBFED011F
:102ED0000895A29FB001B39FC001A39F700D811DF3
:102EE0001124911DB29F700D811D1124911D089513
:102EF0005058BB27AA270E9490170C94F3160E94E3
:102F0000E51638F00E94EC1620F039F49F3F19F4D2
:102F100026F40C94E2160EF4E095E7FB0C94DC1614
:102F2000E92F0E94041758F3BA1762077307840742
:102F3000950720F079F4A6F50C9426170EF4E09589
:102F40000B2EBA2FA02D0B01B90190010C01CA0163
:102F5000A0011124FF27591B99F0593F50F4503E0E
:102F600068F11A16F040A22F232F342F4427585F00
:102F7000F3CF469537952795A795F0405395C9F718
:102F80007EF41F16BA0B620B730B840BBAF09150D0
:102F9000A1F0FF0FBB1F661F771F881FC2F70EC06F
:102FA000BA0F621F731F841F48F487957795679542
:102FB000B795F7959E3F08F0B0CF9395880F08F02E
:102FC0009927EE0F9795879508950E94F9170C940D
:102FD000F3160E94EC1658F00E94E51640F029F412
:102FE0005F3F29F00C94DC1651110C9427170C94B8
:102FF000E2160E94041768F39923B1F3552391F365
:10300000951B550BBB27AA2762177307840738F057
:103010009F5F5F4F220F331F441FAA1FA9F335D0B4
:103020000E2E3AF0E0E832D091505040E695001C68
:10303000CAF72BD0FE2F29D0660F771F881FBB1F22
:10304000261737074807AB07B0E809F0BB0B802D00
:10305000BF01FF2793585F4F3AF09E3F510578F02C
:103060000C94DC160C9427175F3FE4F3983ED4F3DE
:10307000869577956795B795F7959F5FC9F7880F00
:10308000911D9695879597F90895E1E0660F771F52
:10309000881FBB1F621773078407BA0720F0621BE3
:1030A000730B840BBA0BEE1F88F7E09508950E940E
:1030B0004B1608F48FEF0895991B79E004C0991F0F
:1030C000961708F0961B881F7A95C9F78095089582
:1030D000AA1BBB1B51E107C0AA1FBB1FA617B7073E
:1030E00010F0A61BB70B881F991F5A95A9F780955A
:1030F0009095BC01CD01089597FB072E16F400941E
:1031000007D077FD09D00E94681807FC05D03EF46F
:10311000909581959F4F0895709561957F4F089583
:10312000A1E21A2EAA1BBB1BFD010DC0AA1FBB1FCB
:10313000EE1FFF1FA217B307E407F50720F0A21B3D
:10314000B30BE40BF50B661F771F881F991F1A94AA
:1031500069F760957095809590959B01AC01BD01D4
:10316000CF010895052E97FB1EF400940E94C91804
:1031700057FD07D00E94901807FC03D04EF40C9422
:10318000C91850954095309521953F4F4F4F5F4F4F
:10319000089590958095709561957F4F8F4F9F4FC3
:1031A0000895EE0FFF1F0590F491E02D0994B7FFED
:1031B0000C942D170E942D17821B930B089597FDD9
:1031C0001094002E083098F00850232F342F452FEC
:1031D000562F672F782F892F912DF4CF159497951F
:1031E00087957795679557954795379527950A95CC
:1031F000AAF71124002D08950024A7FD00942A1792
:10320000300540055005600570058005900508955E
:103210000F931F93CF93DF938230910510F482E0D8
:1032200090E0E0919B2AF0919C2A30E020E0B0E011
:10323000A0E0309799F42115310509F44AC0281B04
:10324000390B24303105D8F58A819B8161157105D0
:1032500089F1FB0182839383FE0111C0408151817A
:103260000281138148175907E0F04817590799F46C
:10327000109761F012960C93129713961C93329646
:10328000CF01DF91CF911F910F91089500939B2A59
:1032900010939C2AF4CF2115310551F042175307A2
:1032A00038F0A901DB019A01BD01DF01F801C1CFAE
:1032B000EF01F9CF80939B2A90939C2ACDCFFE01FA
:1032C000E20FF31F819391932250310928833983B0
:1032D000D7CF2091992A30919A2A232B41F420911B
:1032E0000628309107282093992A30939A2A209112
:1032F0000428309105282115310541F42DB73EB73A
:103300004091082850910928241B350BE091992AF7
:10331000F0919A2AE217F307A0F42E1B3F0B28170F
:10332000390778F0AC014E5F5F4F2417350748F03E
:103330004E0F5F1F4093992A50939A2A819391933D
:103340009FCFF0E0E0E09CCFCF93DF930097E9F0D0
:10335000FC01329712821382A0919B2AB0919C2A81
:10336000ED0130E020E01097A1F420813181820F3F
:10337000931F2091992A30919A2A2817390709F02A
:1033800061C0E093992AF0939A2ADF91CF91089532
:10339000EA01CE17DF07E8F54A815B819E014115FE
:1033A0005105B1F7E901EA83FB8349915991C40FB3
:1033B000D51FEC17FD0761F4808191810296840F7F
:1033C000951FE90188839983828193818A839B83F6
:1033D000F0E0E0E012968D919C9113970097B9F57B
:1033E0002D913C911197CD010296820F931F209150
:1033F000992A30919A2A2817390739F6309751F5CA
:1034000010929B2A10929C2AA093992AB0939A2AF0
:10341000BCCFC283D38340815181840F951FC817CD
:10342000D90761F44E5F5F4F88819981480F591F1A
:10343000408351838A819B81828393832115310547
:1034400009F0B0CFE0939B2AF0939C2A9ECFFD0118
:10345000DC01C0CF12821382D7CFB0E0A0E0E3E35B
:10346000FAE10C943A178C01009751F4CB010E94B9
:1034700008198C01C801CDB7DEB7E0E10C945317F1
:10348000FC01E60FF71F9C0122503109E217F307F8
:1034900008F49DC0D901CD91DC911197C617D707CB
:1034A00098F0C530D10530F3CE0104978617970701
:1034B00008F3C61BD70B2297C193D1936D937C93CE
:1034C000CF010E94A419D6CF5B01AC1ABD0A4C01F2
:1034D0008C0E9D1EA0919B2AB0919C2A512C412CB0
:1034E000F12CE12C109731F58091992A90919A2A2C
:1034F0008815990509F05CC04616570608F058C0B3
:103500008091042890910528009741F48DB79EB7CB
:103510004091082850910928841B950BE817F9075A
:1035200008F055C0E093992AF0939A2AF901608334
:103530007183A0CF8D919C91119712966C901297E8
:1035400013967C901397A815B90559F56C0142E0C4
:10355000C40ED11CCA14DB0420F1AC014A195B096A
:10356000DA011296159780F062827382408351834C
:10357000D9016D937C93E114F10471F0D701129697
:10358000ED93FC93139776CF22968C0F9D1FF90134
:1035900080839183F301EFCFE0939B2AF0939C2AE1
:1035A00069CF4816590608F42C017D01D3019ACF42
:1035B000CB010E9408197C01009749F0AE01B801C7
:1035C0000E94EA1AC8010E94A419870153CF10E093
:1035D00000E050CFFB01DC0102C001900D92415090
:0A35E0005040D8F70895F894FFCF8B
:1035EA00030201000C0D04050000000300010200A3
:1035FA0000010100000000000000000000000000BF
:10360A00000005040005060204010300010001028E
:10361A000302010002030405020305040202000575
:10362A000201050004010104040403030303050560
:10363A0003030000010120100120400410020801C8
:10364A0002010204080402010408102004082010E0
:10365A0000000000FB038902E2024E041303F10298
:10366A000503D10838031F03700400000000940703
:10367A006F079C084507680755074607650820082D
:10368A0013080F08D607B707AF07E507DD071E07B8
:10369A001907436F756C646E27742066696E64201F
:1036AA00525443000D0A00525443206973204E4F6E
:1036BA00542072756E6E696E672C206C6574277360
:1036CA0020736574207468652074696D6521002C07
:0236DA002000CE
:0A36DC000024F40000009D2A800085
:00000001FF
